:1000000000308A002E2800002F08F8012E02031865
:100010000C282E08F7001828F7010830B000AE0DA4
:10002000F70D2F0877020318F700F80DB00B0F2813
:1000300008002E3084008313000803192D28013096
:10004000F800F701F70B2228F80B21284A30F700B7
:10005000F70B28282B28800B1F28080003081F39BE
:100060008300FF30AA0083161F149F141F159F11D1
:1000700007309C00831303308312A0009F30A1003F
:100080002530A2000D30A3009930A4004930A5000E
:100090004130A6001F30A7000130A8000930A90098
:1000A000AB01AC01AD012108AE00AE09831686019B
:1000B00083122E08860007142A102A088316870048
:1000C00083128714AA102A08831687008312AB01B3
:1000D0002B08633C031CB2282B08AE000A30AF008B
:1000E00004207808AC002B08AE000A30AF000420D2
:1000F0007708AD0007102A102A088316870083129C
:100100008714AA102A0883168700203083122C0730
:10011000840083130008FF3AAE0083168601831221
:100120002E0886000130AE00192007142A102A0874
:100130008316870083128710AA102A088316870067
:10014000203083122D07840083130008FF3AAE008D
:100150008316860183122E0886005030AE001920C7
:08016000AB0A68286728630060
:02400E00412F40
:00000001FF
;PIC16F877A
;CRC=2DD4  CREATED="07-Nov-24 13:04"
